S01A00004763634D61747269785753323831322056332E7372656368
S113000033C000004CC000004AC0000048C00000DB
S113001046C0000044C0000042C0000040C00000D0
S11300203EC000003CC000003AC0000038C00000E0
S113003036C0000034C00000D2C1000030C000004F
S11300402EC000002CC0000098C200007DC2000039
S113005026C0000024C0000022C0000020C0000010
S11300601EC000001CC0000011241FBECFEFD8E04A
S1130070DEBFCDBF11E0A0E0B1E0E6EDF9E002C0E3
S113008005900D92A832B107D9F723E0A8E2B1E0B8
S113009001C01D92AF39B207E1F73ED49AC4B0CF84
S11300A04F935F9340E95AB1542B5AB941E054B18C
S11300B0542B54B95F914F9108954F935F935FB759
S11300C09894889448E0879510F0289801C0289A5D
S11300D05F9A000000005F984A9509F0F4CF5FBF73
S11300E05F914F9108955C9A000000005C98089518
S11300F04F935F9340E15AB5542B5ABD5F914F9192
S113010008957F9374B1726074B975B17D7F75B9C8
S11301103DD07F910895F8940F931F934F9370E40B
S1130120E82FF92F07D07A95E9F74F911F910F9196
S1130130789408957F9313E0019148E075B172605B
S113014075B9001F78F0000075B17D7F75B90000A6
S113015000000000000000000000000000004A95BC
S113016069F710C00000000000000000000000005B
S113017000000000000075B17D7F75B900004A954C
S1130180E9F600001A95C1F67F9108953F934F93C5
S11301905F9352E33FEF4FEF3A95F1F73FEF4A9504
S11301A0D9F74FEF5A95C1F75F914F913F91089559
S11301B0EAE7F0E0808187608083ACE7B0E08C916F
S11301C080648C9380818068808380818064808354
S11301D00895ECE7F0E09081907F90839081892BE3
S11301E08083EAE7F0E0808180648083808186FDFB
S11301F0FDCF8091780090917900089584E0E9CF53
S1130200089585E0E6CF08958DE291E090932B0167
S113021080932A01909329018093280110922C0144
S1130220089590912C01943120F08FEF80932C014C
S11302300895E0912A01F0912B019F012F5F3F4F18
S113024030932B0120932A01808381E0890F8093CE
S11302502C012154314031F42DE231E030932B0153
S113026020932A0108951CDF81E9809349010895B0
S1130270CF93DF93C82FD0E0FE01E95BFE4F80816E
S11302801CDFC050DF4F888118DF2DDFDF91CF9155
S11302900895A7E4B1E0E4E0F1E080818C938181EA
S11302A011968C931197E0914201F0E0E85FFE4FC4
S11302B0808113968C930895A7E4B1E0E4E0F1E023
S11302C082818C93838111968C931197E0914101E3
S11302D0F0E0E85FFE4F808113968C93089589B116
S11302E0807490E090934C0180934B0180914B017A
S11302F090914C010895F3DF882309F466C081DFEF
S11303008C3B924088F080914D0190914E0107976B
S11303100CF05BC080914D0190914E010196909339
S11303204E0180934D0108956CDF892BB9F466DF8B
S113033065DF8115944090F480914D0190914E01B8
S1130340181619060CF041C080914D0190914E0190
S1130350019790934E0180934D01089552DF51DF30
S113036081159440A8F44ADF49DF893C910580F463
S113037080914F019091500107973CF580914F0176
S11303809091500101969093500180934F010895EC
S113039038DF37DF81159440C0F430DF8C3B924066
S11303A0A0F02CDF8115944080F480914F0190914E
S11303B05001181619064CF480914F019091500188
S11303C001979093500180934F01089582E084BD7A
S11303D094E095BD9DE797BD80936E0008951F92AC
S11303E00F920FB60F9211242F933F934F935F9365
S11303F06F937F938F939F93AF93BF93EF93FF93E9
S11304008091430135DF80914301833020F48F5F75
S11304108093430102C0109243018091170190918F
S11304201801009731F001979093180180931701F8
S113043007C084E690E090931801809317015BDF76
S11304408091150190911601009731F001979093D6
S113045016018093150124C082E390E09093160165
S1130460809315013CDF81111BC080911201813002
S113047051F482E08093120184EF91E0909316018D
S1130480809315010DC080911201823049F481E0FE
S11304908093120184EF91E09093160180931501EB
S11304A08091130190911401892B51F080911301D3
S11304B0909114010197909314018093130106C045
S11304C08AEF90E09093140180931301FF91EF91D0
S11304D0BF91AF919F918F917F916F915F914F9158
S11304E03F912F910F900FBE0F901F90189510926F
S11304F0C50087E68093C40086E08093C200E1ECE7
S1130500F0E088E180838081806880837DDE8FE9EC
S11305109FE00197F1F700C000000895E0ECF0E0DF
S1130520908195FFFDCF8093C6000895CF93DF930C
S1130530EC018881882329F02196F0DF89918111CB
S1130540FCCFDF91CF9108951F920F920FB60F92B7
S113055011248F93EF93FF9380915C018093C600E5
S1130560E1ECF0E080818F7D8083FF91EF918F91AA
S11305700F900FBE0F901F9018951F920F920FB6F9
S11305800F9211242F933F934F935F936F937F9315
S11305908F939F93AF93BF93EF93FF938091C60084
S11305A040DEFF91EF91BF91AF919F918F917F9129
S11305B06F915F914F913F912F910F900FBE0F90CC
S11305C01F90189580914D0190914E01E0914F013B
S11305D0F09150019F01220F331FE20FF31F9C0182
S11305E0220F331F820F931F880F991F880F991FA3
S11305F0880F991FE80FF91FE35EFD4F80911F01DB
S113060090912001A091210180839183A283809104
S113061042018F5F80934201089580914D01909132
S11306204E01E0914F01F09150019F01220F331FC1
S1130630E20FF31F9C01220F331F820F931F880FB9
S1130640991F880F991F880F991FE80FF91FE35A04
S1130650FE4F80911F0190912001A0912101808380
S11306609183A283809141018F5F8093410108951A
S1130670CF93DF93EDE1F2E06FED72E0CDEDD2E0E8
S11306800FC02191319141912D933D934D93E817E2
S1130690F907B9F7685E7F4FFC01C817D90721F045
S11306A0CF014896DB01EDCFDF91CF910895CF9331
S11306B0DF93EDE5F1E06FED72E0CDE1D2E00FC044
S11306C02191319141912D933D934D93E817F90771
S11306D0B9F7685E7F4FFC01C817D90721F0CF0135
S11306E04896DB01EDCFDF91CF910895F894EFEDBB
S11306F0F2E04FE953E010C080914401909145012C
S1130700A091460181939193A193E217F307A1F776
S1130710F9014217530721F09F01285E3F4FECCFA8
S113072078940895CF93DF93B4DD81E090E09093C3
S11307304C0180934B01C0E9D1E047C08091130183
S1130740909114018A35910598F592DF80914D01BD
S113075090914E0120914F0130915001F901EE0F1B
S1130760FF1FE20FF31F9C01220F331F820F931F01
S1130770880F991F880F991F880F991FE80FF91F79
S1130780E152FD4F80911C0190911D01A0911E0129
S113079080839183A28384EF91E0FE013197F1F786
S11307A00197D9F78091DD029091DE02B4DC0DC08F
S11307B05FDF84EF91E0FE013197F1F70197D9F7FC
S11307C08091DD029091DE02A6DC80914B01909134
S11307D04C01892B09F0B2CF89DFF4DE49DF88ECC4
S11307E090E020E931E0F9013197F1F70197D9F769
S11307F08091DD029091DE028EDC80E29EE420E9AD
S113080031E0F9013197F1F70197D9F7DF91CF91F1
S11308100895CF93DF9350DD81E090E090934C01F5
S113082080934B01C0E9D1E047C0809113019091BE
S113083014018A35910598F53ADF80914D01909124
S11308404E0120914F0130915001F901EE0FFF1F2D
S1130850E20FF31F9C01220F331F820F931F880F97
S1130860991F880F991F880F991FE80FF91FE152EC
S1130870FD4F8091190190911A01A0911B01808371
S11308809183A28384EF91E0FE013197F1F7019700
S1130890D9F78091DD029091DE023DDC0DC007DFC7
S11308A084EF91E0FE013197F1F70197D9F7809138
S11308B0DD029091DE022FDC80914B0190914C017E
S11308C0892B09F0B2CF12DFA8DEF1DE88EC90E0CC
S11308D020E931E0F9013197F1F70197D9F78091D7
S11308E0DD029091DE0217DC80E29EE420E931E033
S11308F0F9013197F1F70197D9F7DF91CF91089575
S113090080911201813011F40DCF0895809112016C
S1130910823009F47ECF0895F4DB58DDE8DD48DC4D
S1130920E7DBA1DC8FED92E09093DE028093DD02A1
S1130930FC014FE953E010C08091440190914501BE
S1130940A091460181939193A1932E173F07A1F79C
S1130950F9012417350721F09F01285E3F4FECCFA2
S113096082E291E0E3DDEDE5F1E04DE152E015C016
S11309708091440190914501A09146018193919306
S1130980A193E217F307A1F7F9014217530729F4DA
S1130990EDE1F2E04DED52E014C09F01285E3F4FBF
S11309A0E7CF8091440190914501A0914601819344
S11309B09193A193E217F307A1F7F90124173507DF
S11309C021F09F01285E3F4FECCF90DE789498DFB2
S10909D0FECFF894FFCFF6
S11309D680402010319E3124039F250D9949411FE3
S11309E6010901FA0032006400280519190F0000F4
S10B09F66400486F6C6100000D
S9030000FC
