S01A00004763634D61747269785753323831322056332E7372656368
S113000033C000004CC000004AC0000048C00000DB
S113001046C0000044C0000042C0000040C00000D0
S11300203EC000003CC000003AC0000038C00000E0
S113003036C0000034C00000E6C1000030C000003B
S11300402EC000002CC0000096C200007BC200003D
S113005026C0000024C0000022C0000020C0000010
S11300601EC000001CC0000011241FBECFEFD8E04A
S1130070DEBFCDBF11E0A0E0B1E0E0EBF8E002C0EC
S113008005900D92A232B107D9F723E0A2E2B1E0C4
S113009001C01D92A739B207E1F7F4D207C4B0CF6B
S11300A04F935F9340E95AB1542B5AB941E054B18C
S11300B0542B54B95F914F9108954F935F935FB759
S11300C09894889448E0879510F0289801C0289A5D
S11300D05F9A000000005F984A9509F0F4CF5FBF73
S11300E05F914F9108955C9A000000005C98089518
S11300F04F935F9340E15AB5542B5ABD5F914F9192
S113010008957F9374B1726074B975B17D7F75B9C8
S11301103DD07F910895F8940F931F934F9370E40B
S1130120E82FF92F07D07A95E9F74F911F910F9196
S1130130789408957F9313E0019148E075B172605B
S113014075B9001F78F0000075B17D7F75B90000A6
S113015000000000000000000000000000004A95BC
S113016069F710C00000000000000000000000005B
S113017000000000000075B17D7F75B900004A954C
S1130180E9F600001A95C1F67F9108953F934F93C5
S11301905F9352E33FEF4FEF3A95F1F73FEF4A9504
S11301A0D9F74FEF5A95C1F75F914F913F91089559
S11301B0EAE7F0E0808187608083ACE7B0E08C916F
S11301C080648C9380818068808380818064808354
S11301D00895ECE7F0E09081907F90839081892BE3
S11301E08083EAE7F0E0808180648083808186FDFB
S11301F0FDCF8091780090917900089584E0E9CF53
S1130200089585E0E6CF089587E291E09093250173
S1130210809324019093230180932201109226015C
S1130220089590912601943120F08FEF8093260158
S11302300895E0912401F09125019F012F5F3F4F24
S11302403093250120932401808381E0890F8093DA
S113025026012B53314031F427E231E0309325015C
S11302602093240108951CDF81E9809341010895BE
S1130270CF93DF93C82FD0E0FE01E15CFE4F808175
S11302801CDFCE5FDE4F888118DF2DDFDF91CF9139
S11302900895AFE3B1E0E6E0F1E080818C938181E1
S11302A011968C931197E0910101F0E0E65FFE4F07
S11302B0808113968C930895AFE3B1E0E6E0F1E01A
S11302C082818C93838111968C931197E091000124
S11302D0F0E0E65FFE4F808113968C93089589B118
S11302E0807490E090934401809343018091430192
S11302F0909144010895F3DF882309F47AC081DFE3
S11303008C3B9240B0F08091450190914601079753
S11303100CF06FC080914501909146010196909335
S1130320460180934501809145019091460148C161
S1130330089567DF892BE1F461DF60DF8115944064
S1130340B8F48091450190914601181619060CF0F5
S113035050C08091450190914601019790934601C8
S113036080934501809145019091460129C10895EA
S113037048DF47DF81159440D0F440DF3FDF893CFC
S11303809105A8F4809147019091480107978CF555
S11303908091470190914801019690934801809380
S11303A0470180914701909148010AC1089529DFCE
S11303B028DF81159440E8F421DF8C3B9240C8F09B
S11303C01DDF81159440A8F4809147019091480164
S11303D01816190674F48091470190914801019709
S11303E0909348018093470180914701909148017F
S11303F0E7C0089582E084BD94E095BD9DE797BD74
S113040080936E0008951F920F920FB60F921124DD
S11304102F933F934F935F936F937F938F939F9308
S1130420AF93BF93EF93FF9380913B0121DF8091C2
S11304303B01833020F48F5F80933B0102C0109214
S11304403B018091170190911801009731F00197B9
S1130450909318018093170107C082E390E0909372
S113046018018093170147DF8091150190911601BF
S1130470009731F00197909316018093150124C0E1
S113048082E390E0909316018093150128DF811197
S11304901BC080911401813051F482E080931401D7
S11304A084EF91E090931601809315010DC0809123
S11304B01401823049F481E08093140184EF91E0C7
S11304C09093160180931501FF91EF91BF91AF9125
S11304D09F918F917F916F915F914F913F912F9158
S11304E00F900FBE0F901F9018951092C50087E6CD
S11304F08093C40086E08093C200E1ECF0E088E1E0
S113050080838081806880837FDE8FE99FE001970C
S1130510F1F700C000000895E0ECF0E0908195FF51
S1130520FDCF8093C6000895CF93DF93EC018881BB
S1130530882329F02196F0DF89918111FCCFDF9186
S1130540CF9108951F920F920FB60F9211248F939B
S1130550EF93FF93809154018093C600E1ECF0E0A7
S113056080818F7D8083FF91EF918F910F900FBEDB
S11305700F901F9018951F920F920FB60F9211248F
S11305802F933F934F935F936F937F938F939F9397
S1130590AF93BF93EF93FF938091C60042DEFF9128
S11305A0EF91BF91AF919F918F917F916F915F91E7
S11305B04F913F912F910F900FBE0F901F90189560
S11305C04AE06AE471E03FD18AE491E0ADCF089556
S11305D0CF93DF93E5E1F2E067ED72E0C5EDD2E0A1
S11305E00FC02191319141912D933D934D93E81783
S11305F0F907B9F7685E7F4FFC01C817D90721F0E6
S1130600CF014896DB01EDCFDF91CF910895CF93D1
S1130610DF93E5E5F1E067ED72E0C5E1D2E00FC0FC
S11306202191319141912D933D934D93E817F90711
S1130630B9F7685E7F4FFC01C817D90721F0CF01D5
S11306404896DB01EDCFDF91CF910895F894E7ED63
S1130650F2E047E953E010C080913C0190913D01E4
S1130660A0913E0181939193A193E217F307A1F71F
S1130670F9014217530721F09F01285E3F4FECCF49
S1130680789408953EDDB6DE30DF92DD31DDEBDDBA
S113069087ED92E09093D6028093D502FC0127E97E
S11306A033E010C0C0903C01D0903D01E0903E0189
S11306B0C192D192E1928E179F07A1F7FC01821794
S11306C0930719F0CF014896EDCF8CE191E02CDF30
S11306D0E5E5F1E025E132E015C0C0903C01D090A1
S11306E03D01E0903E01C192D192E192E817F907F1
S11306F0A1F7FC012817390729F4E5E1F2E025ED1B
S113070032E013C0CF014896E8CFC0903C01D090AE
S11307103D01E0903E01C192D192E192E817F907C0
S1130720A1F7FC018217930719F0CF014896EDCF8A
S11307308DDF789480911401813009F03FC0A9DDE8
S1130740809114018130B1F781DF42DF809145014E
S113075090914601E0914701F09148019F01220FD9
S1130760331FE20FF31F9C01220F331F820F931FCD
S1130770880F991F880F991F880F991FE80FF91F79
S1130780E952FD4F8091190190911A01A0911B012A
S113079080839183A2832FEF80E792E021508040F1
S11307A09040E1F700C000008091D5029091D602FC
S11307B0B2DC80911401813039F2BCCF80911401F4
S11307C0823009F0B7CF78DD80911401823009F0CE
S11307D0B1CF3CDF1CDF8091450190914601E0914F
S11307E04701F09148019F01220F331FE20FF31FCD
S11307F09C01220F331F820F931F880F991F880FAC
S1130800991F880F991FE80FF91FE952FD4F809136
S1130810190190911A01A0911B0180839183A283F5
S11308202FEF80E792E0215080409040E1F700C034
S113083000008091D5029091D6026DDC8091140164
S1130840823039F277CFBB274A3031F4992322F42E
S1130850BDE2909581959F4F01C0BB27FB015527B1
S1130860AA27880F991FAA1FA41710F0A41B839509
S11308705051B9F7A05DAA3308F0A95DA193009780
S113088079F7B111B1931192CB0100C0DC01FC01E5
S1130890672F71917723E1F7329704C07C916D93B0
S11308A070836291AE17BF07C8F30895F894FFCF21
S11308B0020480402010319E3124039F250D994964
S11308C0411F010901320064000A0A00486F6C618B
S10508D0000022
S9030000FC
